:020000040800F2
:1000000050050020C5000008C9140008FD120008B2
:1000100000000000000000000000000000000000E0
:10002000000000000000000000000000B116000801
:10003000000000000000000055150008F919000834
:10004000D700000800000000D7000008D700000813
:10005000D7000008D7000008D7000008D700000824
:1000600000000000D7000008D7000008D7000008F3
:10007000D7000008D7000008D700000800000000E3
:10008000D70000080000000000000000DD1A000892
:1000900000000000D7000008ED1A0008D700000893
:1000A00000000000D700000800000000ED1F00085D
:1000B0000348854600F02AF8004800471D21000843
:1000C000500500200448804704480047FEE7FEE74B
:1000D000FEE7FEE7FEE7FEE7811A0008B100000830
:1000E00030B50B46014600202022012409E00D46D0
:1000F000D5409D4205D31D469540491B2546954058
:1001000040191546521E002DF1DC30BD064C01256C
:10011000064E05E0E36807CC2B430C3C98471034AF
:10012000B442F7D3FFF7C8FF7421000894210008F8
:10013000F8B5044600200090206881688907890F7F
:10014000012905D10168C9072CD1C168090429D446
:100150008168154A102611400125002915D18168B2
:1001600029438160124811490068FFF7B9FF00E098
:10017000401E00900028FBD100F0BEFB07460CE0BB
:1001800000F0BAFBC01B022807D9606C30436064E2
:10019000A06C2843A0640120F8BD20680068C0431B
:1001A000C007EDD10020F8BD1700008040420F00CD
:1001B000500000203EB50090002469460A4800F037
:1001C000F3F8094800F0A5F8074800F0B7FA611EF7
:1001D000054800F053FA002803D1034800F070F9F5
:1001E000044620463EBD000004010020034910B52E
:1001F00048430349FFF774FF10BD0000A05A3200C6
:100200002A5E1D0010B501F0A7F91D4900280860FD
:100210001C4901D00E2801D9072028E01A4802689D
:100220001A48022A02D0032A05D007E000680228F3
:1002300004D101201BE00068032807D0144802689D
:100240001448022A04D0032A07D009E002200EE055
:100250000068022804D1032009E00068032808D0C0
:100260000D480068022806D0032806D00020086048
:1002700010BD0420FBE70520F9E70620F7E70000A2
:100280003400002028000020040000200800002086
:100290000C0000201000002014000020F8B5174DBD
:1002A000687830280FD3AA78302A0CD3E97830291F
:1002B00009D30A233038584330381018104AC0B2D6
:1002C0001268824201D00020F8BD0E4C0E4E0F4F36
:1002D000312908D1206800280ED101F06FFB0120E0
:1002E000206030603860E878302805D101F05EFB8E
:1002F00000203860206030600120F8BD3C00002004
:1003000034000020200000202400002014000020E1
:10031000FEE7F8B505460446403528780026012852
:1003200008D001202870206881688907890F012979
:1003300008D101E00220F8BD0168C9072AD1C168CF
:10034000090427D4616CFF22013291430222114338
:100350006164816892071143816000F0CDFA07461D
:100360000EE000F0C9FAC01B022809D9606C022116
:100370008843102108436064002028700120F8BDE4
:10038000206880680028ECDB606C80088000401CDE
:10039000606404E0606C2021084360640126002052
:1003A00028703046F8BD0000FEB500220446154610
:1003B0000192403400922278012A3BD0012222701F
:1003C00003689E68760769D4394F4E68BE424FD0A5
:1003D0009D6203689E6A0F78BA4016439E620123AD
:1003E000826B1B079A421FD0012A1DD0022A1BD004
:1003F000032A19D0042A17D0052A15D0062A13D0AB
:10040000072A11D002688B6856697607760FB342C7
:100410000AD05369DB08DB005361006842690B7A3C
:100420005B075B0F1A4342610A68102A04D0112A45
:1004300002D039E00220FEBD1E488368102A07D092
:1004400001229205134383600868102803D02BE033
:100450000122D205F6E7194817490068FFF740FE68
:100460000A21484300E0401E00900028FBD11BE019
:10047000986A0E78B240904398620968102901D0BA
:10048000112911D10B488268102904D00121890556
:100490008A43826008E00121C905F9E7416C202206
:1004A000114341640120019025700198FEBD0000B8
:1004B000011000000027014040420F0050000020C2
:1004C0000068006C70470000F8B50025044600285D
:1004D00003D0606C002802D008E00120F8BD0020A5
:1004E000A06440210855204600F0A8F8606C102256
:1004F000104270D12068816849076CD4616C130187
:10050000994302231943616481688907890F01298E
:1005100005D10168C9070FD1C16809040CD4C168AD
:100520001826B143A6683143C16020680169666836
:1005300089008908314301612068C1683D4E31401E
:10054000C160A069E1698003C9030843216A4E03C1
:100550003043666B012E02D00126360300E00026F0
:100560003043E66830432669022E08D00026304327
:10057000266B76003043666A012E02D00BE004261B
:10058000F5E7002928D0616C202631436164A16C15
:1005900001263143A164A16A0E46FF3EC23E02D04D
:1005A000E66A314308432168CE680643CE600126DF
:1005B000A16B3607B14213D0012911D002290FD007
:1005C00003290DD004290BD0052909D0062907D00D
:1005D000072905D010E028E0012109040843DAE7E3
:1005E00021684E69F608F6004E6121684E69278F32
:1005F0007F077F0F3E434E612168C9680E4E314030
:10060000814207D10020A064606C80088000401CFB
:10061000606408E0606C984310436064A06C012142
:100620000843A06401252846F8BD606C104360644F
:10063000F8E700001902FEFFE7FF3F8300B50068FE
:100640000C4987B0884212D10B48826941150A4390
:100650008261806908400590072000900320019086
:100660000020029009206946C00600F095F807B006
:1006700000BD00000024014000100240F8B504460F
:100680004069254640350E4608280BD02068C068D2
:10069000C00709D0606C20210843606400202870E6
:1006A0000120F8BD082700E00C2700F025F9009094
:1006B00011E0701C0FD0002E05D000F01DF900993C
:1006C000401AB04207D9606C0421084360640020DE
:1006D00028700320F8BD206800683842E9D0606CBB
:1006E00001214902084360642068C16809058A0F36
:1006F0000C21002A1AD1226A002A17D10268120797
:1007000014D5826853070122002B08DB43688B4312
:100710004360606C130298431043606406E0606CB1
:10072000202318436064A06C1043A064A0690028D3
:1007300001D1206801600020F8BD000070B50446BA
:10074000216800208968490721D425464035297849
:1007500001291CD001212970E169012904D020461A
:10076000FFF7E6FC002811D1616C0A4A1140FF2214
:100770000132114361640021A164297022681C21A7
:10078000116021688A6804231A438A6070BD0220C0
:1007900070BD0000FEF1FFFFF8B500238DE00124DD
:1007A0009C40A44622407DD04C68022C01D0122CE3
:1007B0000CD1DC08A40027183C6A5D07ED0E0F265B
:1007C000AE40B4430E69AE4026433E6205685E000B
:1007D0000324B4400F79A543BF07BF0FB7402F4391
:1007E00007604D68012D05D0022D03D0112D01D0D9
:1007F000122D0ED18568CF68A543B7402F4387607F
:1008000047686546AF430D79ED06ED0F9D403D43CA
:100810004560C568A5438C68B4402C43C4604C68EF
:10082000E40049D5284CA56901263543A561A46992
:100830009D0834400094254CAD002F19BC689D07DD
:100840002E0F0F25B540AC430925ED06A84201D176
:1008500000250FE01E4DA84201D101250AE01D4DE3
:10086000A84201D1022505E01B4DA84201D1032574
:1008700000E00525B5402543BD60184C25684E684D
:100880009543F60300D51543256065684E6895438A
:10089000B60300D515436560A5684E689543F6021A
:1008A00002D500E008E01543A560E5684E68954371
:1008B000B60200D51543E5605B1C0A681446DC40AF
:1008C00000D06CE7F8BD00000010024000000140BD
:1008D0000004004800080048000C004800040140E3
:1008E0000069084000D001207047002A01D08161D2
:1008F000704781627047000001480068704700003F
:100900005400002002480168491C01607047000043
:100910005400002010B50648016810221143016000
:10092000002000F007F800F017F8002010BD0000CC
:100930000020024010B5044600F038F97D21C900BE
:10094000FFF7CEFB00F03CFB00222146501E00F0DA
:100950001FF8002010BD000008B50C488169012275
:100960001143816180691040002200901146501FA0
:1009700000F00EF800221146901E00F009F8002247
:100980001146501E00F004F808BD0000001002409F
:1009900010B500F0BDFD10BDF8B505460068354C3A
:1009A000C00352D5E0690026C00007D4E1692004E5
:1009B0000143E161E1690140012600912E4801688F
:1009C000C90510D40168821511430160FFF794FF37
:1009D000074604E0FFF790FFC01B642824D8264890
:1009E0000068C005F6D5206A03273F02384020D0B2
:1009F0006968394081421CD0206A226AB8430121CB
:100A000009040A432262226A8A4322622062C007E2
:100A10000FD0FFF771FF009008E0FFF76DFF00991E
:100A2000411A1648814201D90320F8BD206A800787
:100A3000F3D5206A6968B84308432062002E04D0C9
:100A4000E169012000078143E1612878C00705D0F2
:100A5000206BA968800880000843206328788006FE
:100A600005D5206B10218843E968084320630020E6
:100A7000F8BD000000100240007000408813000024
:100A8000F8B5054644480E460068C007C00FB0429E
:100A90000AD24148016849084900314301600068B1
:100AA000C007C00FB0425CD128783C4C800705D508
:100AB0006068F0218843A968084360602878C0070F
:100AC0003FD06868012813D02168022813D0890715
:100AD000002946DA61688908890001436160FFF7EF
:100AE0000BFF6968074601290DD0022917D024E0C1
:100AF00021688903ECE78901EAE7FFF7FDFEC11BE6
:100B00002748814217D860680007800F0128F4D178
:100B100017E0FFF7F1FEC11B214881420BD8606846
:100B20000007800F0228F4D10BE0FFF7E5FEC11BA0
:100B30001B48814201D90320F8BD60680007800F7F
:100B4000F3D115480168C907C90FB1420BD9016833
:100B500049084900314301600068C007C00FB04236
:100B600001D00120F8BD2878400706D5606807212C
:100B700009028843E9680843606000F02DF8616865
:100B8000084A0906090F515CC8400749086000205F
:100B9000FFF7D0FE0020F8BD002002400010024008
:100BA000881300005C210008500000200148006804
:100BB000704700005000002004480549006849685B
:100BC000044A4905490F515CC84070475000002055
:100BD000001002406C21000810B512A30FCB88B0A2
:100BE0006C460FC413A30FCB0FC416494A680C20E0
:100BF000134603401448042B0FD0082B0DD1930249
:100C00001B0F6C46E45CC96A04AB0907090F595C09
:100C1000D20304D5FFF764FA604308B010BD0B4857
:100C20006043FAE702030405060708090A0B0C0DE6
:100C30000E0F10100102030405060708090A0B0C29
:100C40000D0E0F100010024000127A0000093D0046
:100C5000FEB504460078D04DC00747D0686800074D
:100C6000800F012807D068680007800F022809D18B
:100C70006868C00306D52868800337D560680028F7
:100C80007ED033E0012062680004012A11D0810087
:100C9000002A01D0052A10D02A6882432A602868D9
:100CA000884328606068002814D0FFF725FE0646B8
:100CB0000CE0296801432960F4E72A680A432A60A6
:100CC000F7E7FFF719FE801B64286FD828688003B8
:100CD000F7D50BE0FFF710FE064604E0FFF70CFE29
:100CE000801B6428F1D828688003F7D42078012677
:100CF000800700283BDA68680007800F07D0686823
:100D00000007800F022809D16868C00306D428684C
:100D1000800715D5E068012832D111E0E06800288D
:100D2000286815D030432860FFF7E6FD074604E049
:100D3000FFF7E2FDC01B0228C7D828688007F7D557
:100D40002868F82188432169C900084328600EE01B
:100D5000400840002860FFF7CFFD074604E0FFF79A
:100D6000CBFDC01B0228B0D828688007F7D42078B4
:100D7000000724D5E0690028686A10D0304300E0FD
:100D800008E16862FFF7B8FD074604E0FFF7B4FD2D
:100D9000C01B022899D8686A8007F7D50FE0400881
:100DA00040006862FFF7A8FD074605E09DE0FFF7F9
:100DB000A3FDC01B022888D8686A8007F7D4207872
:100DC00004274007002860DA00200190E869C0008D
:100DD00008D4E969B8060143E961E96901400120E5
:100DE000009101906D480168C90511D40168821510
:100DF00011430160FFF780FD009005E0FFF77CFDE7
:100E00000099401A642870D864480068C005F5D578
:100E1000A06801280AD0002801D0052810D0286A2F
:100E2000400840002862286AB84301E0286A30433D
:100E30002862A068002812D0FFF75EFD00900AE04B
:100E4000286A38432862F1E7FFF756FD0099411AF6
:100E50005348814249D8286A8007F5D50DE0FFF74D
:100E60004BFD009006E0FFF747FD0099411A4C4802
:100E700081423AD8286A8007F5D40198002804D026
:100E8000E969012000078143E9612078C00635D572
:100E9000606901280CD0401D686B23D0384368631B
:100EA000686B400840006863FFF726FD064622E0B5
:100EB000686B38436863686B30436863FFF71CFDF9
:100EC000064604E0FFF718FD801B02285BD8686B1C
:100ED0008007F7D5686BF8218843A169C9000843EA
:100EE00068630BE0B8436863F4E74CE0FFF704FD88
:100EF000801B022847D8686B8007F7D4206A002837
:100F000046D069680907890F022943D001263606B1
:100F10000228286805D0B0432860FFF7EDFC04469E
:100F200033E0B0432860FFF7E7FC074604E0FFF733
:100F3000E3FCC01B022826D828688001F7D4E86AA1
:100F4000E16A000900010843E862616AA06A084397
:100F500069683D2212049143084368602868304361
:100F60002860FFF7C9FC044604E0FFF7C5FC001B3E
:100F7000022808D828688001F7D509E0FFF7BCFCF3
:100F8000001B022801D90320FEBD28688001F5D48A
:100F90000020FEBD0120FEBD001002400070004098
:100FA00088130000042204490428086902D09043F1
:100FB000086170471043FBE700E000E07047000065
:100FC000094910B5401E884201D9012010BD074CC7
:100FD00060610321081F00F09BFA0020A061072038
:100FE0002061002010BD0000FFFFFF0000E000E0D6
:100FF00010B5FFF7E3FF10BD70B502462032137E37
:10100000012B1BD0012313760224547604686568F3
:101010007026B5436560046865680E683543656091
:101020000468A5688026B543A5600068846849689F
:101030000C43846053760020107670BD022070BD92
:1010400000B50068094985B088420DD18020009024
:1010500002200190002002900390012004900920BA
:101060006946C006FFF798FB05B000BD00040040CC
:10107000F8B5064604462036307E0D4601280DD0D0
:1010800001203076022070760427002A08D0042A36
:1010900016D0082A2AD00C2A4DD137E00220F8BDFC
:1010A000206800F09DFD206881690822114381615C
:1010B00020688169B9438161206881692A6912E0E9
:1010C000206800F0C9FD206882690121C9020A4335
:1010D00082612068816901229202914381612068C6
:1010E00081692A6912021143816124E0206800F0BD
:1010F000EDFD2068C26908210A43C2612068C16908
:10110000B943C1612068C1692A6912E0206800F012
:1011100019FE2068C1690122D2021143C161206811
:10112000C269012189028A43C2612068C1692A69B2
:1011300012021143C1610120707600203076F8BDA3
:1011400070B5040005D025462035687E002802D001
:1011500006E0012070BD00202876204600F00AF845
:1011600002206876211D206800F0F4FC01206876DA
:10117000002070BD08B500680549884207D10548C0
:10118000C26902210A43C261C0690840009008BDDB
:10119000000400400010024010B50446006801221F
:1011A00000F012FD0A482168814205D009488142B9
:1011B00002D00948814204D1486C0122D203104375
:1011C000486420680168012211430160002010BDBD
:1011D000002C0140004401400048014030B5044665
:1011E0000068002200F0F0FC144A134821689310B4
:1011F000814205D01248814202D0124881420AD170
:10120000086A104207D1086A184204D1486C0125C7
:10121000ED03A84348642068016A114206D1016ABF
:10122000194203D1016849084900016001202034B6
:101230006076002030BD0000002C0140111100003C
:10124000004401400048014070B5040005D0254627
:101250006035687A002802D006E0012070BD0020C9
:101260002872204600F026F8242068722068016861
:10127000490849000160204600F02EFE0128EDD00B
:10128000606A002802D0204600F0B8FD206841685E
:101290000122D20291434160206881680822914373
:1012A000816020680168012211430160204600F03E
:1012B0000AFE70BD00B500680E4987B0884217D19C
:1012C0000D488269012189030A43826180690840CF
:1012D000059003204002009002200190012103208C
:1012E00003900291049109206946C006FFF754FA61
:1012F00007B000BD0038014000100240FEE70000CA
:101300003EB51E481C49016000248460012505612A
:101310000905C46041608461C46104624462C462BE
:101320004563042104634161FFF7CEF8002801D032
:10133000FEF7EEFF012000030190000402900094EC
:1013400069460E48FFF730F8002801D0FEF7E0FFAD
:1013500069460A480095FFF727F8002801D0FEF7F4
:10136000D7FF0220009069460448FFF71DF80028C7
:1013700001D0FEF7CDFF3EBD002401400401002056
:10138000F0B5264887B04269012189050A434261C8
:1013900042690A400592426949110A434261426921
:1013A0000A400592426949000A43426140690926A0
:1013B0000840F6060590002260213046FFF795FAB6
:1013C000174F002203213846FFF78FFA60200024D0
:1013D0000125009002946946019503943046FFF779
:1013E000DBF9032000900294694601950394384686
:1013F000FFF7D2F91320C0020090019469460294CD
:101400003046FFF7C9F9F82000900194694602942C
:101410003846FFF7C1F907B0F0BD000000100240E8
:101420000004004810B5174917488AB0002412C0BC
:101430000F210460C901846041600838FFF780FE15
:10144000002801D0FEF764FF079407A90E4808940E
:10145000FFF7D2FD002801D0FEF75AFF6020009070
:10146000019402940422694604940748FFF700FEA1
:10147000002801D0FEF74CFF0348FFF7E1FD0AB05A
:1014800010BD000000040040C800002010B50C484A
:101490000A4901600B49416000218160C16001611E
:1014A0008161C1610C22016242614162FFF7CCFEA1
:1014B000002801D0FEF72CFF10BD000000380140CD
:1014C000580000201DC40100704700008307FF2260
:1014D000DB0E9A408907090E994000280BDA0007B5
:1014E000000F0838830808489B001818C369934305
:1014F0000B43C3617047830804489B001B1818689E
:10150000904308431860704700ED00E000E400E0FD
:101510008307FF22DB0E9A408907090E99400028B5
:101520000BDA0007000F0838830808489B001818DA
:10153000C36993430B43C3617047830804489B000E
:101540001B181868904308431860704700ED00E0CE
:1015500000E400E07047000070B509250121ED06A8
:10156000C9022846FFF7BCF9C40101210903284636
:10157000FFF7B6F9800104430121C9032846FFF7AC
:10158000AFF94001104D044308212846FFF7A8F9A0
:101590000001044310212846FFF7A2F9C0000443CC
:1015A00020212846FFF79CF980000443402128466B
:1015B000FFF796F94000044380212846FFF790F991
:1015C0000443E043C0B270BD00040048F8B50120F8
:1015D000FEF7F0FD2C4CE168CA00891840180A217A
:1015E000FEF77EFD294D2A4B00222A49E060A842E1
:1015F00001D2022027E0254DFF266D4245193936DC
:10160000B54201D81A6007E0234DFF2746198737F6
:101610000125BE4202D81D600A6016E01F4EFF275A
:101620008619FD37BE4201D81A6006E01C4EFF271E
:101630008619F537BE4202D81D600D6005E0194DD0
:10164000A842D6D90320186008601D68164B186898
:10165000854205D02068401C2060322802D003E07B
:10166000226001E022601D60104B09681868814209
:1016700007D06068401C6060322801D16260196048
:10168000F8BD6260F8BD0000400000208505000044
:10169000180000201C00002025F9FFFF0FF7FFFFB6
:1016A0006FF2FFFF850F00000400002008000020FB
:1016B0007047000010B5FEF7F1FD00283BD0012077
:1016C0001D491E4C0860024601462046FFF70DF9F1
:1016D000012202212046FFF708F90A2000F0D6FC7B
:1016E000032000F06DFB164800783030C0B200F0E7
:1016F00067FB144800783030C0B200F061FB12483C
:1017000000783030C0B200F05BFB10480078303019
:10171000C0B200F055FB0E4800783030C0B200F087
:101720004FFB002201212046FFF7DFF800220221B3
:101730002046FFF7DAF810BD300000200004004812
:101740001400002004000020080000200C000020ED
:1017500010000020F8B50020FEF72CFD224CA168F7
:10176000CA00891840180A21FEF7BAFCA060FEF7EB
:101770003DFD1E4C05462068002833D0401CFF214B
:101780005F3100261A4F206088420AD27D20000176
:10179000854206D9266000F009F903201549386012
:1017A000086020680146FF392D3901D100F016F993
:1017B000FF2021685F30814214D92060FF20F5307E
:1017C000854206D9266000F0F1F803200949386007
:1017D0000860322D06D2266000F0E8F802200549A4
:1017E00038600860F8BD00004000002024000020A0
:1017F0001400002020000020F8B5604C60482168EB
:101800007D26491C2160076809200025F600C006D6
:101810005C4A3B0000F01EFC08070516283F5C8070
:10182000AC07B14201D2002202E0914204D201226F
:101830002021FFF75AF8F8BD192292019142F2D304
:10184000514A0EE0B142EED39142F0D319229201F7
:101850009142E8D34C4A9142E9D34C4A9142E2D3B7
:101860004B4A9142E3D381E0B142DCD39142DED3D3
:10187000192292019142D6D3434A9142D7D3434A87
:101880009142D0D3424A9142D1D3AF221201914228
:10189000C9D3404AE5E7B142C5D39142C7D3192223
:1018A00092019142BFD3384A9142C0D3374A914204
:1018B000B9D3374A9142BAD3AF2212019142B2D37F
:1018C000344A9142B3D3344A9142ACD3334AC8E745
:1018D000B142A8D39142AAD3192292019142A2D334
:1018E000294A9142A3D3294A91429CD3284A914242
:1018F0009DD3AF221201914295D3264A914296D3AD
:10190000254A91428FD3254A914290D37D2252019C
:10191000914288D3224AA4E7B14284D3914286D32C
:101920001922920191428AD3174A91428DD3174AC4
:10193000914284D3164A914287D3AF221201914239
:1019400087D3144A914287D3134A914287D3134ACB
:10195000914287D37D225201914286D3104A91420F
:1019600085D3104A914286D30F4A7AE72560F8BDA5
:1019700001222021FEF7B9FFF8E700002C0000202B
:1019800028000020140500006C07000098080000E3
:10199000C40900001C0C0000480D0000740E00007B
:1019A000CC100000F81100002413000010B5042131
:1019B0000148FFF713FC10BDC800002010B504213A
:1019C0000348FFF7E9FB04490248886310BD0000A3
:1019D000C8000020810700000004004010B5042169
:1019E0000348FFF7D9FB0349C820886310BD0000F6
:1019F000C80000200004004010B5FEF783FFFFF789
:101A0000F7FA10BD70B594B001251120059500902E
:101A10000195102006900003099000010226002481
:101A20000A9008960B946846FFF712F9002800D038
:101A3000FEE707200C900E9401210D960F940CA840
:101A4000FFF71EF8002800D0FEE710A810951294AA
:101A5000FEF7A2FF002800D0FEE7FFF7A7F87D21E0
:101A6000C900FEF73DFBFFF7ABFA0420FFF79AFA37
:101A700000221146501EFEF78BFF14B070BD00000F
:101A8000134801680122114301604168114A114065
:101A900041600168104A114001600168012292040E
:101AA0009143016041683F22120491434160C16A41
:101AB00009090901C162016BFF22143291430163DC
:101AC000416B490849004163002181607047000073
:101AD000001002400CB8FF08FFFFF6FE0248016943
:101AE00049084900016170470020004070B5164860
:101AF0000169490849000161FFF72CFEFFF766FD07
:101B0000FEF780FBFFF778FE104A09201168C00637
:101B1000491C4B1E1160C72B01D2012210E00C465C
:101B2000C93C0023C72C03D2094C2568012D05D0E0
:101B30000846FF38913800D1136070BD0022236041
:101B40004021FEF7D2FE70BD004801400000002099
:101B50003000002070B50268164B174D984201D036
:101B6000A84204D1144670264A68B4432243134C59
:101B7000134E984208D0A84206D0124DA84203D076
:101B8000A04201D0B04204D103252D02AA43CD6862
:101B90002A4302608A68C2620A688262984203D05D
:101BA000A04201D0B04201D1096901630121416124
:101BB00070BD0000002C01400004004000440140C2
:101BC000004801400020004010B50123046A8B400A
:101BD0009C430462036A8A401343036210BD000001
:101BE000F0B5026A520852000262056A43688269CF
:101BF0007024A24392080C68920014430222954379
:101C00008A68134E2A43114DA84204D0B04202D034
:101C1000104FB84206D10827BA43CF6817430422B1
:101C200097433A46A84204D0B04202D0094DA84298
:101C300006D103252D02AB434D691D438B692B4310
:101C400043608461496841630262F0BD002C014039
:101C5000004401400048014070B5026A10239A43D5
:101C60000262046A4368826973252D02AA430D68E3
:101C70002D021543202294438A6812012243104CFE
:101C8000A04208D11446CA688026B44312012243F8
:101C90004024A24305E00B4CA04202D00A4CA042D3
:101CA00008D10324A402A3434C69A4001C438B69FC
:101CB0009B0023434360856149688163026270BD74
:101CC000002C0140004401400048014070B5026A08
:101CD000FF2301339A430262046A4368C269702594
:101CE000AA4392080D6892001543012252029443C0
:101CF0008A6812022243104CA04207D1C414A243A6
:101D0000CC68240222430615B24305E00B4CA042E6
:101D100002D00B4CA04208D103242403A3434C69F6
:101D200024011C438B691B0123434360C56149683F
:101D3000C163026270BD0000002C014000440140FC
:101D40000048014030B5026A01231B039A43026236
:101D5000056A4268C36973242402A3430C68240201
:101D60001C4301235B039D438B681B032B430A4DDC
:101D7000A84205D0094DA84202D0094DA84205D17C
:101D80000125AD03AA434D69AD012A434260C461F8
:101D900049680164036230BD002C014000440140E9
:101DA00000480140044801682022114301600349B2
:101DB00090050860704700000038014000E100E035
:101DC00030B505460B4B0C4C01E05B1E10D3802157
:101DD000204600F02DF90028F7D02946234620465A
:101DE00000F02EF94021184600F022F90028F9D021
:101DF00030BD0000E09304000038014010B5818C34
:101E0000C90707D001684A6801235B049A43836AC3
:101E10001A434A60818C890707D501684A68012303
:101E20001B049A43C36A1A434A60818C490707D549
:101E300001684A6801239B049A43036B1A434A6072
:101E4000818C090707D501684A680123DB039A439F
:101E5000436B1A434A60818CC90607D502689168B2
:101E600001231B039943836B19439160818C89067D
:101E700007D501688A6801235B039A43C36B1A4341
:101E80008A60818C490612D503685A6801210905C8
:101E9000046C8A4322435A60026C8A4207D102686A
:101EA000516803235B059943436C19435160818C4E
:101EB000090607D501684A680123DB04806C9A4350
:101EC00002434A6010BD0021C16620226030427288
:101ED0008272017208467047F8B504462369A26809
:101EE000E6691A43636910213343002026681A43C8
:101EF00033680546394F3B401343336023685A68C3
:101F000003263603B243E66832435A60236AA26965
:101F100026681A43B3680B273F02BB431343B360E1
:101F20002F4A126B9207920F06D0012A08D0022A7C
:101F300008D0032A07D101E0002104E0022102E0D9
:101F4000042100E008210122E369D203934224D155
:101F500000290CD002290DD0042913D0082917D04C
:101F60000125010909010007400F084332E0FEF78F
:101F700023FE09E061681B4A48088018FEF7B0F8A4
:101F800080B2EEE7FEF728FE616840004A08F4E7F9
:101F90006168012248081204EFE7002908D00229ED
:101FA00009D004290BD008290ED001252846F8BDF8
:101FB000FEF702FE05E061680B4A480806E0FEF7FE
:101FC0000BFE61684A0801E0616848088018FEF766
:101FD00087F880B22168C860E8E70000F369FFFF76
:101FE000001002400024F40000127A0010B50D48E1
:101FF000808C0106090E0FD00B4B0C4A02290CD025
:102000001068002808D01954401C1060042803D11F
:1020100000201060FFF74EFB10BD0120106019700A
:1020200010BD0000003801403C00002038000020B6
:102030000246D26900200A4200D001207047000009
:10204000034AD269520602D5C905C90D01857047F8
:102050000038014030B47446641E2578641CAB42DD
:1020600000D21D46635D5B00E31830BC184702E0F8
:1020700008C8121F08C1002AFAD170477047002013
:1020800001E001C1121F002AFBD170470C498A6987
:1020900001235B041A438A610A492F228A62C862BB
:1020A0004A69012002434A610A6808231A430A6008
:1020B0000A6802430A600868C007FCD17047000044
:1020C000001002400044014070B505460F48816988
:1020D00001229204114381610D487D21C9000068ED
:1020E000FDF7FEFF0B4C401EA062E562E068012593
:1020F0002843E0600849A805086029461620FFF734
:10210000E5F920682843206070BD000000100240FF
:10211000500000200048014000E100E0FEF7FAFB1B
:10212000FFF770FCFFF72CF9FFF7B0F9FFF77AF92A
:10213000FFF7E6F8FFF736FE074C002201212046A4
:10214000FEF7D3FB002202212046FEF7CEFB012042
:10215000FFF7BAFFFEE7000000040048000000009F
:102160000000000001020304060708090000000047
:102170000102030494210008000000205800000020
:102180006E200008EC21000858000020F804000030
:102190007E20000800000000000000000000000099
:1021A000000000000000000000000000000000002F
:1021B000000000000000000000000000000000001F
:1021C000000000000000000000000000000000000F
:1021D00000000000000000000000000000000000FF
:0C21E0000000000000127A000000000067
:04000005080000B13E
:00000001FF
